:030000000209836F
:0C098300787FE4F6D8FD75810B0209CAEC
:080A5B00020A000002080080FD
:03001B00020A31A5
:100A3100C0E0C28E758D3C758BB0050BE50B700265
:070A4100050AD28ED0E0325D
:100A480075A004E4F59075891075A888758D3C75B6
:030A58008BB0223E
:100A0F00AB07AA06D28E7C007D14AF03AE0212088C
:100A1F00E6C3E50B9FE50A9E40ECE4F50AF50BC231
:020A2F008E2215
:10080000120A48AF90EF60FBAF90EF75F005A4249B
:10081000B3FFE5F034FFFEAD907C001208E6EF2454
:100820006CFFEE3401FEAD901208E6EF24FCFFEE03
:1008300034FDFEAD901208E67D701208F8E59014C4
:10084000559070047D0180027D007C001208E6EF67
:100850002509F509EE3508F508D3E50994FFE50803
:100860006480948040067E007FFF8004AE08AF095C
:100870008E088F09D3E509947FE508648094804051
:10088000047F0180027F00D3E509941EE50864809F
:10089000948040047E0180027E00EE2FFFD3E509A4
:1008A000949BE5086480948040047E0180027E0071
:1008B000EF2EFFD3E50994E1E508648094804004BD
:1008C0007E0180027E00EF2EFFF87401088002C3D3
:1008D00033D8FCF5A07F017E00120A0FAF90EF70B5
:0608E0000302080380F68C
:10098F00020800E493A3F8E493A34003F68001F276
:10099F0008DFF48029E493A3F85407240CC8C33369
:1009AF00C4540F4420C8834004F456800146F6DF38
:1009BF00E4800B0102040810204080900A5BE47E63
:1009CF00019360BCA3FF543F30E509541FFEE4932D
:1009DF00A360010ECF54C025E060A840B8E493A3F4
:1009EF00FAE493A3F8E493A3C8C582C8CAC583CA1F
:1009FF00F0A3C8C582C8CAC583CADFE9DEE780BED7
:010A63000092
:1008E600EF8DF0A4A8F0CF8CF0A428CE8DF0A42E26
:0208F600FE22E0
:1008F800C2D5EC30E709B2D5E4C39DFDE49CFCEE1B
:1009080030E715B2D5E4C39FFFE49EFE12092EC35B
:10091800E49DFDE49CFC800312092E30D507C3E456
:060928009FFFE49EFE2289
:10092E00BC000BBE0029EF8DF084FFADF022E4CCAD
:10093E00F875F008EF2FFFEE33FEEC33FCEE9DEC76
:10094E00984005FCEE9DFE0FD5F0E9E4CEFD22EDBC
:10095E00F8F5F0EE8420D21CFEADF075F008EF2F06
:10096E00FFED33FD4007985006D5F0F222C398FDF7
:05097E000FD5F0EA2294
:00000001FF
