:0300000002095D95
:0C095D00787FE4F6D8FD75810902094B93
:10094B00C288E4F5A0F508F50975A885D288D28A86
:02095B0080FE1C
:10091E00AE08AF097C007D0A120812AB077C007D81
:10092E000A120800C3E5099FFFAD07EBC4F8540F88
:0C093E00C868FF8FA0AF05EF25A0F5A052
:01094A00228A
:0300030002089D53
:10089D00C0E0C0F0C0D075D000C000C002C003C021
:1008AD0004C005C006C007D3E5099462E50864805D
:1008BD009480500B0509E5097002050812091ED038
:1008CD0007D006D005D004D003D002D000D0D0D0B0
:0408DD00F0D0E03245
:030013000208E1FF
:1008E100C0E0C0F0C0D075D000C000C002C003C0DD
:1008F10004C005C006C007E5094508600BE50915F8
:10090100097002150812091ED007D006D005D004BF
:0D091100D003D002D000D0D0D0F0D0E03222
:10080000EF8DF0A4A8F0CF8CF0A428CE8DF0A42E0C
:02081000FE22C6
:10081200C2D5EC30E709B2D5E4C39DFDE49CFCEE01
:1008220030E715B2D5E4C39FFFE49EFE120848C329
:10083200E49DFDE49CFC800312084830D507C3E424
:060842009FFFE49EFE2270
:10084800BC000BBE0029EF8DF084FFADF022E4CC94
:10085800F875F008EF2FFFEE33FEEC33FCEE9DEC5D
:10086800984005FCEE9DFE0FD5F0E9E4CEFD22EDA3
:10087800F8F5F0EE8420D21CFEADF075F008EF2FED
:10088800FFED33FD4007985006D5F0F222C398FDDE
:050898000FD5F0EA227B
:00000001FF
