:03000000020918DA
:0C091800787FE4F6D8FD7581090209081B
:10090800C288E4F5A0F508F50975A881D28880FEAB
:0300030002089D53
:10089D00C0E0C0F0C0D075D000C000C002C003C021
:0708AD0004C005C006C007EE
:1008B4000509E50970020508D39463E5086480948A
:1008C40080502CAE08AF097C007D0A120812AB07D9
:1008D4007C007D0A120800C3E5099FFFAD07EBC445
:0F08E400F8540FC868FF8FA0AF05EF25A0F5A04F
:1008F300D007D006D005D004D003D002D000D0D08A
:05090300D0F0D0E0324D
:10080000EF8DF0A4A8F0CF8CF0A428CE8DF0A42E0C
:02081000FE22C6
:10081200C2D5EC30E709B2D5E4C39DFDE49CFCEE01
:1008220030E715B2D5E4C39FFFE49EFE120848C329
:10083200E49DFDE49CFC800312084830D507C3E424
:060842009FFFE49EFE2270
:10084800BC000BBE0029EF8DF084FFADF022E4CC94
:10085800F875F008EF2FFFEE33FEEC33FCEE9DEC5D
:10086800984005FCEE9DFE0FD5F0E9E4CEFD22EDA3
:10087800F8F5F0EE8420D21CFEADF075F008EF2FED
:10088800FFED33FD4007985006D5F0F222C398FDDE
:050898000FD5F0EA227B
:00000001FF
