:03000000020800F3
:0C080000787FE4F6D8FD758129020847D6
:1008B00020200A0000008000C000E000F000F800E6
:1008C000FC00FE00FF00FE00FC00F800F000E0006D
:0308D000C00080E5
:03001B000208F6E2
:1008F600C0E0C28E758D3C758BB00509E5097002A6
:070906000508D28ED0E0329B
:0D091F0075891075A888758D3C758BB02208
:1008D400AB07AA06D28E7C007D14AF03AE021209C8
:1008E4000DC3E5099FE5089E40ECE4F508F509C24F
:0208F4008E2252
:10088C0012091F900000AF82EF25E0240AF808E659
:10089C00F5A07F027E001208D4A3E5826410458384
:0408AC0070E480DF95
:10080C0002088CE493A3F8E493A34003F68001F26E
:10081C0008DFF48029E493A3F85407240CC8C333ED
:10082C00C4540F4420C8834004F456800146F6DFBC
:10083C00E4800B01020408102040809008B0E47E94
:10084C00019360BCA3FF543F30E509541FFEE493B1
:10085C00A360010ECF54C025E060A840B8E493A378
:10086C00FAE493A3F8E493A3C8C582C8CAC583CAA3
:10087C00F0A3C8C582C8CAC583CADFE9DEE780BE5B
:0108D3000024
:10090D00EF8DF0A4A8F0CF8CF0A428CE8DF0A42EFE
:02091D00FE22B8
:00000001FF
