:030000000208D41F
:0C08D400787FE4F6D8FD75810B02091B4B
:0809BE00020A0000020800809B
:03001B0002098255
:10098200C0E0C28E758D3C758BB0050BE50B700215
:07099200050AD28ED0E0320D
:1009990075A004E4F59075891075A888758D3C7566
:0309A9008BB022EE
:10096000AB07AA06D28E7C007D14AF03AE0212093B
:10097000ACC3E50B9FE50A9E40ECE4F50AF50BC21B
:020980008E22C5
:10080000120999AF90EF60FBAF90EF24FE601624C1
:10081000FE601C24FC60222407702974FE2509F563
:100820000974FF801BE50915097019150880150565
:1008300009E509700F0508800B74022509F509E424
:100840003508F508D3E50994FFE5086480948040F5
:10085000067E007FFF8004AE08AF098E088F09D3A3
:10086000E5099464E5086480948040047F01800277
:100870007F00D3E509941EE5086480948040047EDF
:100880000180027E00EE2FFFD3E509949BE508640A
:1008900080948040047E0180027E00EF2EFFD3E52D
:1008A0000994E1E5086480948040047E0180027E22
:1008B00000EF2EFFF87401088002C333D8FCF5A0C6
:1008C0008509807F017E00120960AF90EF700302FE
:0408D000080380F6A3
:1008E000020800E493A3F8E493A34003F68001F226
:1008F00008DFF48029E493A3F85407240CC8C33319
:10090000C4540F4420C8834004F456800146F6DFE7
:10091000E4800B01020408102040809009BEE47EB0
:10092000019360BCA3FF543F30E509541FFEE493DC
:10093000A360010ECF54C025E060A840B8E493A3A3
:10094000FAE493A3F8E493A3C8C582C8CAC583CACE
:10095000F0A3C8C582C8CAC583CADFE9DEE780BE86
:0109C6000030
:1009AC00EF8DF0A4A8F0CF8CF0A428CE8DF0A42E5F
:0209BC00FE2219
:00000001FF
