:030000000208D122
:0C08D100787FE4F6D8FD75810B02091851
:0809BB00020A0000020800809E
:03001B0002097F58
:10097F00C0E0C28E758D3C758BB0050BE50B700218
:07098F00050AD28ED0E03210
:1009960075A004E4F59075891075A888758D3C7569
:0309A6008BB022F1
:10095D00AB07AA06D28E7C007D14AF03AE0212093E
:10096D00A9C3E50B9FE50A9E40ECE4F50AF50BC221
:02097D008E22C8
:10080000120996AF90EF60FBAF90EF24FE601624C4
:10081000FE601C24FC60222407702974FE2509F563
:100820000974FF801BE50915097019150880150565
:1008300009E509700F0508800B74022509F509E424
:100840003508F508D3E50994FFE5086480948040F5
:10085000067E007FFF8004AE08AF098E088F09D3A3
:10086000E509947FE5086480948040047F0180025C
:100870007F00D3E509941EE5086480948040047EDF
:100880000180027E00EE2FFFD3E509949BE508640A
:1008900080948040047E0180027E00EF2EFFD3E52D
:1008A0000994E1E5086480948040047E0180027E22
:1008B00000EF2EFFF87401088002C333D8FCF5A0C6
:1008C0007F017E0012095DAF90EF70030208038084
:0108D000F631
:1008DD00020800E493A3F8E493A34003F68001F229
:1008ED0008DFF48029E493A3F85407240CC8C3331C
:1008FD00C4540F4420C8834004F456800146F6DFEB
:10090D00E4800B01020408102040809009BBE47EB6
:10091D00019360BCA3FF543F30E509541FFEE493DF
:10092D00A360010ECF54C025E060A840B8E493A3A6
:10093D00FAE493A3F8E493A3C8C582C8CAC583CAD1
:10094D00F0A3C8C582C8CAC583CADFE9DEE780BE89
:0109C3000033
:1009A900EF8DF0A4A8F0CF8CF0A428CE8DF0A42E62
:0209B900FE221C
:00000001FF
