:03000000020800F3
:0C080000787FE4F6D8FD758127020847D8
:1008E0002020080000008000C000E000F000F800B8
:1008F000FC00FE00FF00FE00FC00F800F000E0003D
:03090000C00080B4
:0409040075891022BF
:10088C00D3EF9400EE94004026E4FDFC758D3C758E
:10089C008BB0D28EA28FB340FBC28EC28F0DBD0027
:0F08AC00010CED64144C70E4EF1F70D41E80D16A
:0108BB00221A
:1008BC00120904E4FBFAEB25E02408F808E6F5A09D
:1008CC007F027E0012088C0BBB00010AEB64104AFD
:0408DC0070E480DF65
:10080C000208BCE493A3F8E493A34003F68001F23E
:10081C0008DFF48029E493A3F85407240CC8C333ED
:10082C00C4540F4420C8834004F456800146F6DFBC
:10083C00E4800B01020408102040809008E0E47E64
:10084C00019360BCA3FF543F30E509541FFEE493B1
:10085C00A360010ECF54C025E060A840B8E493A378
:10086C00FAE493A3F8E493A3C8C582C8CAC583CAA3
:10087C00F0A3C8C582C8CAC583CADFE9DEE780BE5B
:0109030000F3
:00000001FF
