:03000000020800F3
:0C080000787FE4F6D8FD758115020847EA
:0E092300080A00000008000100050212000092
:0A09400075891075A888E4F5A0225F
:03001B0002090CCB
:10090C00C0E0C28E758D3C758BB00509E50970028F
:07091C000508D28ED0E03285
:1008F300D28EC3E5099FEE6480F8E50864809840D2
:09090300F1E4F508F509C28E22A9
:0E093200AD07AC06D2A01208F3C2A00208F373
:10088C0012094030A1FDAF90EFF460F7E4F512F5DA
:10089C0013E51325E0240AF8E6FE08E6FF4E700780
:1008AC00F51475150A80048E148F15D3E515940074
:1008BC00E5146480948040117F017E00120932E5BA
:1008CC0015151570E6151480E27F047E00120932AE
:1008DC000513E51370020512C39404E512648094A9
:0708EC008040AED2A280FEA5
:10080C0002088CE493A3F8E493A34003F68001F26E
:10081C0008DFF48029E493A3F85407240CC8C333ED
:10082C00C4540F4420C8834004F456800146F6DFBC
:10083C00E4800B0102040810204080900923E47E20
:10084C00019360BCA3FF543F30E509541FFEE493B1
:10085C00A360010ECF54C025E060A840B8E493A378
:10086C00FAE493A3F8E493A3C8C582C8CAC583CAA3
:10087C00F0A3C8C582C8CAC583CADFE9DEE780BE5B
:0109310000C5
:00000001FF
